:020000040800F2
:10000000A804002001010008231700089713000826
:10001000211700086D010008091A000800000000FF
:10002000000000000000000000000000271700088A
:100030006F010008000000002517000829170008BC
:100040001B0100081B0100081B0100081B01000820
:100050001B0100081B0100081B0100081B01000810
:100060001B0100081B0100081B0100081B01000800
:100070001B0100081B0100081B0100081B010008F0
:100080001B0100081B0100081B0100081B010008E0
:100090001B0100081B0100081B0100081B010008D0
:1000A0001B0100081B0100081B0100081B010008C0
:1000B0001B0100081B0100081B0100081B010008B0
:1000C0001B0100081B0100081B0100081B010008A0
:1000D0001B010008FD1900081B0100081B01000896
:1000E0001B0100081B0100081B010008DFF80CD0F1
:1000F00000F02AF800480047591A0008A804002018
:100100000648804706480047FEE7FEE7FEE7FEE7B1
:10011000FEE7FEE7FEE7FEE7FEE7FEE771170008F1
:10012000ED000008D2B201E000F8012B491EFBD21D
:1001300070470022F6E710B513460A4604461946F2
:10014000FFF7F0FF204610BD064C074D06E0E068C3
:1001500040F0010394E8070098471034AC42F6D30E
:10016000FFF7C8FF141D0008341D0008FEE77047A4
:1001700010B590F821100024022903D004218163D6
:1001800001243DE001680A6822F00E020A6001685D
:100190000A6822F001020A601A4A0168914201D1FC
:1001A000012121E0174A1432914201D110211BE0B4
:1001B000144A2832914201D1891515E0114A3C3286
:1001C000914201D189140FE00E4A5032914202D17E
:1001D0004FF4803108E00B4A6432914202D14FF46F
:1001E000801101E04FF08071064A083A5160012108
:1001F00080F82110002180F82010416B01B1884760
:10020000204610BD0800024070B5044600F00AF90F
:100210000546601C02D004480078044400F002F94E
:10022000401BA042FAD370BD000000202DE9F84F1A
:10023000DFF8B891002409F1040A0AF1040B2346FF
:100240000F270BF1040EC9E00125A5402A40AA4260
:100250007DD1674ED1F804C0ACEB0608B44532D06E
:1002600014DCBCF1030F3AD009DCBCF1000F2AD03A
:10027000BCF1010F1CD0BCF1020F31D11DE0BCF16B
:10028000110F17D0BCF1120F2AD119E0B8F5881F51
:1002900019D006DCB8F5803F15D0B8F5801F1FD106
:1002A00011E0B8F5001F0ED0B8F5041F18D10AE010
:1002B000CB6815E0CB681B1D12E0CB6808330FE05C
:1002C000CB680C330CE08B682BB1012B4FF008038B
:1002D00003D0456104E0042302E0056100E000234F
:1002E000FF2A01D8064601E000F104064FEA840522
:1002F00001D9A5F12005D6F8008007FA05FC28EA07
:100300000C0803FA05F548EA0508C6F800804D68B0
:10031000ED0062D5374DAE6946F00106AE61AD69BC
:1003200024F0030605F001050095334D06EB050C9E
:10033000DCF80850A607360F07FA06F825EA080584
:10034000DFF8B880404503D14FF0000817E044E0E3
:10035000DFF8AC80404502D14FF001080FE0DFF834
:10036000A480404502D14FF0020808E0DFF89880F1
:10037000404502D14FF0030801E04FF0040808FAAD
:1003800006F848EA0508CCF808804D68D9F80060FE
:10039000ED034D4601D5164300E096432E604D68AF
:1003A000DAF80060AD03554601D5164300E09643E8
:1003B0002E604D68DBF80060ED025D4601D5164306
:1003C00000E096432E604D68DEF80060AD02754691
:1003D00001D5164300E096432E60641C0D682A4642
:1003E000E5407FF431AFBDE8F88F00000004014024
:1003F0000000111000100240000001400008014000
:10040000000C01400010014000140140C2680A4283
:1004100001D041617047016170470AB101617047C5
:100420000904FBE7014880687047000000000020D5
:1004300070B504001BD094F83D00002520B984F865
:100440003C50204600F0F6FA242084F83D00206855
:10045000016821F00101016000F048FC4D4A61682B
:10046000914201D84C4900E04C49884201D2012018
:1004700070BD4B492368B0FBF1F15E6826F03F0682
:100480000E435E606368934206D94FF496735943F6
:100490004FF47A73B1FBF3F12368491C1E6A26F00E
:1004A0003F06314319626168914210D84900401EED
:1004B000B0FBF1F2521CC2F30B02042A01D2042059
:1004C00022E0B0FBF1F0401CC0F30B001CE0A3687D
:1004D000F3B301EBC10202EB0116421EB2FBF6F2CE
:1004E000521C42F48042120549D093B301EBC10281
:1004F00002EB0111401EB0FBF1F0401CC0F30B00F9
:1005000040F4804040F400402168CA694CF6FF7313
:100510009A431043C861D4E90701084321680A6877
:1005200022F0C00210430860D4E9030101432068AF
:10053000826848F2FF339A4311438160D4E9050190
:1005400008432168CA6822F0FF021043C86001E036
:100550000EE016E02068016841F0010101602564A9
:10056000202084F83D00256384F83E50002070BDB3
:1005700001EB4106421EB2FBF6F2521CB3E701202A
:10058000C2E701EB4101401EB0FBF1F0401CC0F39B
:100590000B00B7E7A086010080841E0000093D0023
:1005A00040420F002DE9FF4F81B089460446FFF716
:1005B00039FF054694F83D004FF0010820287AD114
:1005C000192301224B492046009500F0D1FF002855
:1005D00071D194F83C0001286DD0012084F83C00D2
:1005E00020680168C90703D1016841F00101016079
:1005F0002068016821F400610160242084F83D0036
:10060000002626643C48E0624FF0011B202720684A
:10061000016841F48071016000950022594620462E
:10062000049B00F0A5FF002856D1216809F0FE00C8
:100630000861FFF7F7FE2168054648694969C0F37C
:100640004000C1F380214FF0A00A0FE0FFF7EAFE5F
:10065000411B0498814200D808B984F83DA0216864
:1006600048694969C0F34000C1F3802194F83D20F6
:10067000A02A02D008B90029E8D084F83D7020688B
:100680004169C943890717D4016841F400710160C9
:100690002068416980691923012216492046009586
:1006A00000F066FFC0B984F83D7084F83C6000201B
:1006B00005B0BDE8F08F1BE0016841F400710160F6
:1006C00021686FF48060486119230122094920469E
:1006D000009500F04DFF08B10120E9E7039808F10B
:1006E0000108804593D384F83D7084F83C60F3E7BB
:1006F0000220DDE7020010000000FFFF2DE9F84FA7
:100700001F4690468A460446DDF82890FFF78AFE89
:10071000054694F83D00202879D119230122774914
:100720002046009500F024FF0028F5D194F83C0005
:1007300001286CD0012084F83C0020680168C907BA
:1007400003D1016841F0010101602068016821F4D2
:1007500000610160222084F83D00102084F83E00F2
:1007600000262664C4F824806785608D208564484F
:10077000E0622B464A465146204600F024FE0028FF
:100780007ED1208D5F4F68B1012814D002282068E7
:1007900001681ED041F48061016020684169806970
:1007A00000909DE02068416981690091016841F4F1
:1007B0000071016094E02068016821F480610160AB
:1007C00072B62068416981690091016841F4007145
:1007D0000AE041F40061016072B6206841698169F4
:1007E0000091016821F48061016062B678E003281D
:1007F00050D801280CD002284B464FF00002394651
:10080000204600950FD000F0B3FEC8BB10E073E0A7
:100810002A464946204600F02AFF88BB2068006926
:10082000616A087053E000F0A3FE48BB72B61AE09C
:100830002068016821F48061016072B62068006957
:10084000616A0870606A401C6062208D401E2085CD
:10085000608D401E60854B4600223946204600953B
:1008600000F086FE60B92068016841F40071016003
:1008700020680069616A0870606A401C606200E07C
:100880000EE0218D491E2185618D491E618562B66C
:1008900021681AE02A464946204600F0E8FE10B1D9
:1008A0000120BDE8F88F20680069616A0870606AFD
:1008B000401C6062218D491E2185618D491E618524
:1008C00021684A69D24352070AD409690170606AF3
:1008D000401C6062208D401E2085608D401E60851A
:1008E000208D002883D1202084F83D0084F83E60CC
:1008F00084F83C600020D4E70220D2E70200100018
:100900000000FFFF040001002DE9F84F1F4690464C
:100910008A460446DDF82890FFF784FD054694F8E2
:100920003D0020287FD1192301224049204600950F
:1009300000F01EFE002876D194F83C00012872D009
:10094000012084F83C0020680168C90703D10168D0
:1009500041F0010101602068016821F4006101603B
:10096000212084F83D00102084F83E0000262664F3
:10097000C4F824806785608D20852D48E0622B4671
:100980004A465146204600F089FD90B920684169E9
:100990008069009036E02A464946204600F09AFEDB
:1009A00050B1206C042804D12068016841F4007122
:1009B00001600120BDE8F88F606A21680078086155
:1009C000606A401C6062618D491E6185218D491EEF
:1009D00089B2218522685369DB435B070BD451B18F
:1009E00000781061606A401C6062608D401E608506
:1009F000208D401E20852A464946204600F092FD63
:100A00000028CED1208D0028C5D154F83D0B0168B7
:100A100041F400710160202004F81E09E677667732
:100A20000020C7E7FFE70220C4E700000200100033
:100A30000000FFFF10B586B00021009101910291E6
:100A4000039100680F4988421AD10F4CA06940F009
:100A50000800A061A069694600F008000490C02069
:100A6000009012200190032003900848FFF7DEFB5E
:100A7000E06940F40010E061E06900F400100490C7
:100A800006B010BD0054004000100240000C0140B0
:100A9000024881680278114481607047000000209C
:100AA000074810B5016841F010010160032000F013
:100AB00075F8002000F006F800F024F8002010BDC2
:100AC0000020024070B50D4D04464FF47A7128782D
:100AD000B1FBF0F00A490968B1FBF0F000F0ECFA64
:100AE00048B9102C07D200222146501E00F036F8DB
:100AF00000206C6070BD012070BD0000000000206F
:100B00000C0000200C4808B5816941F001018161A9
:100B1000816901F001010091C16941F08051C16119
:100B2000C06900F0805000900448416821F0E06105
:100B300041F00071416008BD00100240000001401A
:100B4000002809DB00F01F020121914040098000CC
:100B500000F1E020C0F8001170470000F0B40E4B27
:100B60001B680C46C3F30223C3F10705042D00D90B
:100B70000425191D072901D2002300E0DB1E0126F0
:100B800006FA05F1491E214099409E40761E164006
:100B90003143F0BC00F039BF0CED00E0064900F035
:100BA000070208684FF6FF03184040EA0220034A94
:100BB00010430860704700000CED00E00000FA05EB
:100BC0002DE9F0470F46050061D0434E306800F034
:100BD0000700B84209D2306820F00700384330607F
:100BE000306800F00700B84251D128683B4C8107BB
:100BF00012D5400703D5606840F4E0606060287853
:100C0000000703D5606840F4605060606068A968C0
:100C100020F0F000084360602878C00728D068689A
:100C2000012810D02168022810D0890700292EDA67
:100C3000616821F0030101436160FFF7F3FB804627
:100C400041F288390DE021688903EFE78901EDE77A
:100C5000FFF7E8FBA0EB0801494502D90320BDE8F6
:100C6000F0876068696800F00C00B0EB810FEFD18D
:100C7000306800F00700B8420BD9306820F0070058
:100C800038433060306800F00700B84201D00120DE
:100C9000E5E72878400705D56068E96820F4E0605A
:100CA000084360602878000706D56068296920F449
:100CB000605040EAC100606000F038F86168084A9E
:100CC000C1F30311515CC84006490860064800683A
:100CD000FFF7F8FE0020C2E70020024000100240AB
:100CE000FC1C00080C0000200400002004480549FA
:100CF00000684968044AC1F30221515CC84070474A
:100D00000C000020001002400C1D0008044805499A
:100D100000684968044AC1F3C221515CC840704769
:100D20000C000020001002400C1D000812A185B02C
:100D30000FC98DE80F0014A0144A00680490516890
:100D4000134801F00C03042B10D0082B0ED1C1F373
:100D50008343C9031DF803000AD5516804AAC1F3EF
:100D60004041515C0A4A5043B0FBF1F005B0704776
:100D700008494843FAE7000002030405060708098A
:100D80000A0B0C0D0E0F10100102000000100240A3
:100D900000127A0000093D002DE9F84F040070D0E0
:100DA0002078C04DC00749D06868C0F38100012891
:100DB00007D06868C0F38100022809D16868C003C1
:100DC00006D52868800339D560680028E7D035E06B
:100DD0006068B0F5803F0BD010B1B0F5A02F11D0F6
:100DE000286820F480302860286820F4802002E001
:100DF000286840F480302860606890B1FFF712FBEB
:100E000006460AE0286840F480202860F0E700BF2A
:100E1000FFF708FB801B642873D828688003F7D588
:100E20000CE0FFF7FFFA064605E000BFFFF7FAFA0D
:100E3000801B6428F0D828688003F7D420789A4E65
:100E400080074FF001094FF0000839D5686810F0AD
:100E50000C0F07D06868C0F38100022809D16868C8
:100E6000C00306D42868800714D52069012808D15A
:100E700010E02069B0B1C6F80090FFF7D3FA07463A
:100E800005E00AE1FFF7CEFAC01B0228C4D82868A3
:100E90008007F7D52868616920F0F80040EAC100B2
:100EA00028600DE0C6F80080FFF7BCFA074604E0B2
:100EB000FFF7B8FAC01B022823D828688007F7D4A8
:100EC000207800072CD57948A169D9B1C0F80090E5
:100ED000FFF7A8FA074604E0FFF7A4FAC01B0228B0
:100EE0000FD8686A8007F7D571484FF4FA51006847
:100EF000B0FBF1F0009000BF0098411E0091FAD2C3
:100F00000EE080E0C0F80080FFF78CFA074604E0AE
:100F1000FFF788FAC01B022875D8686A8007F7D4E3
:100F20002078400760D5E8690027C00008D4E86948
:100F300040F08050E861E869012700F0805000909F
:100F40005C480168C90513D40168834641F4807187
:100F50000160FFF767FA824606E000BFFFF762FA1A
:100F6000A0EB0A0064284ED8DBF80000C005F5D5D8
:100F7000E06801280AD008B1052813D0286A20F0BB
:100F800001002862286A20F0040002E0286A40F08C
:100F900001002862E06841F2883B98B1FFF742FA0D
:100FA00082460BE0286A40F004002862EEE700BFAA
:100FB000FFF738FAA0EB0A0159455AD8286A80078A
:100FC000F6D50CE0FFF72EFA824605E0FFF72AFA85
:100FD000A0EB0A0159454CD8286A8007F6D41FB106
:100FE000E86920F08050E861E06988B36968C1F37E
:100FF0008101022944D00228C6F8608004D0FFF79E
:1010000011FA044638E034E0FFF70CFA074604E032
:10101000FFF708FAC01B02282BD828688001F7D4F4
:10102000206AB0F5803F05D16868A16820F40030DF
:1010300008436860D4E908010843696821F4741121
:1010400008436860C6F86090FFF7ECF9044606E0D4
:1010500025E000BFFFF7E6F9001B022809D8286841
:101060008001F7D51BE000BFFFF7DCF9001B022869
:1010700002D90320BDE8F88F28688001F4D40EE07F
:101080000128F7D06868226A00F48031914204D1C7
:10109000616A00F47010884201D00120EAE7002064
:1010A000E8E7000000100240000042428004424293
:1010B0000C0000200070004010B5401EB0F1807F91
:1010C00001D3012010BD4FF0E02460610F216017B3
:1010D00000F09BFC0020A06107202061002010BDD3
:1010E0007047000070B5026804461068D168536903
:1010F00010F00F0F50D003F0010501F49076354346
:101100005DD0C20705D0CA0503D5E26B42F00102EB
:10111000E263420705D5DA0703D0E26B42F0020230
:10112000E263820705D5DA0703D0E26B42F00402DE
:10113000E263020705D5DA0703D0E26B42F008024A
:10114000E263E26B002A33D0800604D5880602D51C
:10115000204600F047FB20684069E16BC0F3801037
:10116000090700D428B3204600F02EFB206841690F
:1011700049061AD5416921F040014161606BA0B177
:101180001B494163606BFEF7F3FF002810D0606BD2
:10119000416BBDE870400847830610D58B060ED51D
:1011A0002046BDE8704000F01DBB2046FFF798FFC9
:1011B00070BD2046FFF794FF0020E06370BD03067A
:1011C00006D50B0604D52046BDE8704000F0B2BB42
:1011D0004006F3D54806F1D5D168204621F04001FC
:1011E000D160202184F8391000F0D4F870BD0000DF
:1011F000B917000870B5040004D094F83900002530
:1012000010B106E0012070BD84F83850204600F08F
:1012100023F8242084F839002068C16821F40051A3
:10122000C160204600F02AFB2068016921F490414A
:1012300001612068416921F02A0141612068C1688B
:1012400041F40051C160E563202084F8390084F83E
:101250003A00002070BD000030B585B00024009435
:101260000194029403940068184988422CD11848CC
:10127000816941F480418161816901F48041049177
:10128000816941F0040181618069124D00F0040020
:1012900004904FF40070009002200190032003900E
:1012A00069462846FEF7C2FF2815CDE900046946C5
:1012B00028460294FEF7BAFF002211462520FFF7C8
:1012C0004DFC2520FFF73CFC05B030BD0038014047
:1012D000001002400008014070472DE9F843044621
:1012E00090F839001F4616460D46202850D1A5B16A
:1012F0009EB194F8380001284AD0012084F83800C3
:101300004FF00008C4F83C80212084F83900FFF732
:1013100089F8A6848146E68426E00120BDE8F883AA
:10132000E08C401EE084A0684B46B0F5805F4FF033
:1013300000024FF080012046009703D000F02BFB05
:10134000E8B90DE000F027FBC8B928882168C0F390
:1013500008004860206908B16D1C05E0AD1C03E081
:10136000216815F8010B4860E08C0028D8D14B4665
:10137000002240212046009700F00DFB08B1032019
:10138000CCE7202084F8390084F838800020C5E7B5
:101390000220C3E77047FEE701684A69D24352055D
:1013A0000FD46FF480624A61002140F8301F202280
:1013B00042738173026942F00402026101730120E9
:1013C0007047002070472DE9F84F0446C06A1E465A
:1013D00092460D4621680A6842F480620A60082835
:1013E00007D0012805D010F5803F02D0206B1128CE
:1013F00004D12068016841F4807101604FF0011848
:101400005346002241462046009600F0B1F8F0BB5A
:10141000206908F10109B0F5804F0FD0062021683E
:1014200000EAD51747F0F00008613346524608F14C
:101430000701204600F0D0F848BB03E0E8B240F0D6
:1014400001001BE02168E8B2086133465246494674
:10145000204600F0C1F8D0B9206841698169009147
:10146000016841F4807101605346002241462046E4
:10147000009600F07DF850B947F0F100216808614E
:10148000334652464946204600F0A6F800E001E007
:10149000002800D00120BDE8F88F0000F8B5044610
:1014A000C06A1E460D461746082807D0012805D0F9
:1014B00010F5803F02D0206B122804D1206801680B
:1014C00041F480710160134600224FF00111204663
:1014D000009600F04DF808BB2069B0F5804F0ED0A3
:1014E0000620216800EAD51040F0F000086133467C
:1014F0003A460B49204600F06FF878B902E005F053
:10150000FE0000E0E8B221680861054933463A462A
:10151000891F204600F060F8002800D00120F8BDA7
:101520000800010070B516460D4604460DE0204641
:10153000FFF732FF08B1012070BD681C05D0FEF72F
:1015400071FF801BA84207D835B120684069C043AD
:101550004007ECD4002070BD002044F8300F20215B
:101560006173A073216941F0200121612073E2E7DA
:101570002DE9F0471E4690460D460446C1F3074745
:10158000DDF8209008E0701C06D0FEF74BFFA0EBC2
:101590000900B0420FD876B12068012F18D08069B9
:1015A00025EA00000004000C14D000214145EAD0D7
:1015B0000020BDE8F087002044F8300F202161733F
:1015C000A073216941F02001216120730120F0E71F
:1015D0004069E5E70121E9E72DE9F0479A469146A0
:1015E0000E46044600254FF02008C1F3074725E0CA
:1015F00020684069C043400514D42068016841F464
:101600000071016021686FF480604861256384F88F
:101610003D8084F83E50206C40F00400206484F843
:101620003C501FE0B9F1FF3F08D0FEF7FBFEA0EBF6
:101630000A0149450CD8B9F1000F09D02068012FE3
:1016400013D0806926EA00000004000C0BD0CFE71D
:1016500044F8305F84F80D80A573206940F02000C5
:10166000206125730120BDE8F0874069EAE72DE994
:10167000F041002590460E460446202717E04069B9
:10168000C043C0060CD454F8301B6FF01000486102
:1016900044F810596777A577206A2062257717E00C
:1016A000FEF7C0FEA0EB0800B04208D83EB12068AB
:1016B0004169C9434906E2D40020BDE8F08144F8FD
:1016C000305F6773A573206940F0200020612573A7
:1016D0000120F2E770B516460D4604460DE020469F
:1016E000FFF75AFE08B1012070BD681C05D0FEF757
:1016F00099FE801BA84207D835B120684069C043D5
:101700000006ECD4002070BD002044F8300F2021EA
:101710006173A073216941F0200121612073E2E728
:10172000FEE7704770477047FFF7B2B910B590B049
:1017300028216846FEF7FDFC14210AA8FEF7F9FCF3
:1017400002200090012004901020002405900794AE
:101750006846FFF721FB0F20CDE90A040C940D9495
:1017600000210AA80E94FFF72BFA10B010BD00005C
:101770000D48016841F00101016041680B4A1140C8
:10178000416001680A4A11400160016821F480212A
:101790000160416821F4FE0141604FF41F01816046
:1017A0000449C00308607047001002400000FFF8C1
:1017B000FFFFF6FE08ED00E010B5406A0021C1858C
:1017C000C184FFF78DFC10BD0168CA6822F49072D5
:1017D000CA6001684A6922F001024A61202180F84A
:1017E0003A10704710B590F83A10222901D0022023
:1017F00010BD8168B1F5805F11D0016900290168D1
:101800001FD0496801F07F03816A4A1C82620B7015
:10181000C18D491E0904090CC18518D02BE002694D
:10182000816A002A0268526805D0D2B20A80816AB1
:10183000491C8162ECE7C2F308020A80816A891CB4
:10184000F7E74A68816A4B1C83620A70E0E7016827
:10185000CA6822F02002CA600168CA6822F4807255
:10186000CA6001684A6922F001024A61202180F8B9
:101870003A10FFF731FD002010BD00002DE9F041C6
:10188000044600680169E26821F440511143016196
:101890002169A0680843616908432168CA6841F268
:1018A0000C639A430243CA6020684169A26921F42B
:1018B0004071114341611E492068642532268842E7
:1018C00002D1FFF723FA01E0FFF710FA00EBC001A5
:1018D00001EB001160686FF018078000B1FBF0F2B7
:1018E000B2FBF5F2B1FBF0F37A4303EB8202B1FBFA
:1018F000F0F306EB0212B2FBF5F2B3FBF5F302F0E4
:10190000F00202EB0312B1FBF0F3B1FBF0F0B0FB1D
:10191000F5F0784303EB800006EB0010B0FBF5F028
:10192000216800F00F0010448860BDE8F0810000DD
:101930000038014090F83910212901D00220704769
:101940008168B1F5805F016A0BD04A1C02620268AF
:1019500009785160C18C491E0904090CC1840ED05C
:1019600017E009880268C1F3080151600169002984
:10197000016A02D0491C0162ECE7891CFBE701689F
:10198000CA6822F08002CA600068C16841F0400164
:10199000C160002070472DE9F041984617460E4679
:1019A0000446069D1DE0681C1BD02DB1FEF73AFDD4
:1019B000A0EB0800A84214D92068C16821F4D071B6
:1019C000C1602068416921F001014161202084F853
:1019D000390084F83A00002084F838000320BDE87C
:1019E000F0812068006836EA000004D00020B84288
:1019F000D9D00020F3E70120F9E700000148FFF704
:101A000071BB000064000020FEE70907090E0028F2
:101A100004DB00F1E02080F80014704700F00F00B4
:101A200000F1E02080F8141D704702E008C8121F82
:101A300008C1002AFAD170477047002001E001C1B7
:101A4000121F002AFBD17047092801D8303000E06E
:101A50003730C0B27047000090B0FFF721F8FFF7B1
:101A600065FE00249C480C940D940E940F9481699B
:101A700041F008018161816901F0080100918169EB
:101A800041F0040181618069944E00F004004FF43C
:101A900080550090002229463046FEF7BEFC4FF0EC
:101AA00002094FF00108CDF83C900C95CDE90D846A
:101AB0000CA93046FEF7BAFB8A48894901608A4979
:101AC000C0E90114A900C0E9034144618461C46113
:101AD0000462FEF7ADFC83488449543001604FF442
:101AE000E131C0E901140C21C460C0E90441846102
:101AF000C461FFF77FFB631E0A22D0217948FEF7FD
:101B000051FD50B9012729463046FEF77FFCFA20E7
:101B1000FEF77AFB7F1C0A2FF5DD8DF804400A25BD
:101B20008DF80540022301AAD0216E480095FEF7EA
:101B3000EBFE07208DF824008DF82540022309AA2A
:101B4000D02168480095FEF7DFFE8DF81480302024
:101B50008DF81500022305AAD02162480095FEF7F2
:101B6000D3FE08208DF8280031208DF829000223AB
:101B70000AAAD0215B480095FEF7C6FE8DF81890A2
:101B800051248DF81940022306AAD021554800950A
:101B9000FEF7BAFE09208DF82C008DF82D400223A7
:101BA0000BAAD0214F480095FEF7AEFE0E208DF80F
:101BB00020001D208DF82100022308AAD0214948C9
:101BC0000095FEF7A1FE0F208DF81C0088208DF8EF
:101BD0001D00022307AAD02142480095FEF794FE7B
:101BE00043A202AB07CA83E80700002401AE05AF99
:101BF0000DF1180894FBF5F005FB104030B90223F5
:101C000007AAD02137480095FEF77EFE012301AADE
:101C1000D02134480095FEF777FE0123721CD121B4
:101C200030480095FEF76AFD9DF805000009FFF7B2
:101C30000BFF8DF80E009DF8050000F00F00FFF778
:101C400003FF8DF80F00012305AAD0212548009538
:101C5000FEF75AFE01237A1CD12122480095FEF797
:101C60004DFD9DF815000009FFF7EEFE8DF80B0005
:101C70009DF8150000F00F00FFF7E6FE8DF80C0050
:101C8000012306AAD02117480095FEF73DFE012347
:101C900008F10102D12113480095FEF72FFD9DF8B0
:101CA0001900C0F30010FFF7CFFE8DF808009DF873
:101CB000190000F00F00FFF7C7FE8DF80900094872
:101CC0000A231A4602A95430FFF707FBC820FEF783
:101CD0009BFA641C8EE7000000100240000C0140DB
:101CE0000054004010000020A08601000038014090
:101CF00000003A00003A00000D0A00000000000059
:101D000000000000010203040607080900000000AB
:101D100001020304341D0008000000201000000030
:101D20002A1A0008441D0008100000209804000032
:101D30003A1A000801000000100000000000000036
:041D40000024F40087
:04000005080000ED02
:00000001FF
